{
  "contractName": "Wallet",
  "abi": [
    {
      "inputs": [
        {
          "internalType": "address",
          "name": "_owner",
          "type": "address"
        }
      ],
      "stateMutability": "nonpayable",
      "type": "constructor"
    },
    {
      "inputs": [],
      "name": "balance",
      "outputs": [
        {
          "internalType": "uint256",
          "name": "",
          "type": "uint256"
        }
      ],
      "stateMutability": "view",
      "type": "function"
    },
    {
      "inputs": [],
      "name": "owner",
      "outputs": [
        {
          "internalType": "address",
          "name": "",
          "type": "address"
        }
      ],
      "stateMutability": "view",
      "type": "function"
    },
    {
      "stateMutability": "payable",
      "type": "receive"
    },
    {
      "inputs": [
        {
          "internalType": "uint256",
          "name": "_amount",
          "type": "uint256"
        },
        {
          "internalType": "address payable",
          "name": "_receiver",
          "type": "address"
        }
      ],
      "name": "debit",
      "outputs": [],
      "stateMutability": "nonpayable",
      "type": "function"
    },
    {
      "inputs": [],
      "name": "credit",
      "outputs": [],
      "stateMutability": "payable",
      "type": "function"
    }
  ],
  "bytecode": "0x608060405234801561000f575f80fd5b5060405161054e38038061054e833981810160405281019061003191906100d5565b8060015f6101000a81548173ffffffffffffffffffffffffffffffffffffffff021916908373ffffffffffffffffffffffffffffffffffffffff16021790555050610100565b5f80fd5b5f73ffffffffffffffffffffffffffffffffffffffff82169050919050565b5f6100a48261007b565b9050919050565b6100b48161009a565b81146100be575f80fd5b50565b5f815190506100cf816100ab565b92915050565b5f602082840312156100ea576100e9610077565b5b5f6100f7848285016100c1565b91505092915050565b6104418061010d5f395ff3fe608060405260043610610042575f3560e01c806387cf0a06146100635780638da5cb5b1461008b578063a06d083c146100b5578063b69ef8a8146100bf5761005f565b3661005f57345f80828254610057919061027e565b925050819055005b5f80fd5b34801561006e575f80fd5b5061008960048036038101906100849190610339565b6100e9565b005b348015610096575f80fd5b5061009f6101ad565b6040516100ac9190610397565b60405180910390f35b6100bd6101d2565b005b3480156100ca575f80fd5b506100d3610243565b6040516100e091906103bf565b60405180910390f35b3373ffffffffffffffffffffffffffffffffffffffff1660015f9054906101000a900473ffffffffffffffffffffffffffffffffffffffff1673ffffffffffffffffffffffffffffffffffffffff1614610141575f80fd5b5f5482111561014e575f80fd5b815f8082825461015e91906103d8565b925050819055508073ffffffffffffffffffffffffffffffffffffffff166108fc8390811502906040515f60405180830381858888f193505050501580156101a8573d5f803e3d5ffd5b505050565b60015f9054906101000a900473ffffffffffffffffffffffffffffffffffffffff1681565b3373ffffffffffffffffffffffffffffffffffffffff1660015f9054906101000a900473ffffffffffffffffffffffffffffffffffffffff1673ffffffffffffffffffffffffffffffffffffffff161461022a575f80fd5b345f8082825461023a919061027e565b92505081905550565b5f5481565b5f819050919050565b7f4e487b71000000000000000000000000000000000000000000000000000000005f52601160045260245ffd5b5f61028882610248565b915061029383610248565b92508282019050808211156102ab576102aa610251565b5b92915050565b5f80fd5b6102be81610248565b81146102c8575f80fd5b50565b5f813590506102d9816102b5565b92915050565b5f73ffffffffffffffffffffffffffffffffffffffff82169050919050565b5f610308826102df565b9050919050565b610318816102fe565b8114610322575f80fd5b50565b5f813590506103338161030f565b92915050565b5f806040838503121561034f5761034e6102b1565b5b5f61035c858286016102cb565b925050602061036d85828601610325565b9150509250929050565b5f610381826102df565b9050919050565b61039181610377565b82525050565b5f6020820190506103aa5f830184610388565b92915050565b6103b981610248565b82525050565b5f6020820190506103d25f8301846103b0565b92915050565b5f6103e282610248565b91506103ed83610248565b925082820390508181111561040557610404610251565b5b9291505056fea2646970667358221220aa8d62a2e4693ff5f4705cee8ec3aa461b1a31eac75b9a2eb06006aed066e30b64736f6c63430008150033",
  "immutableReferences": {},
  "source": "// SPDX-License-Identifier: MIT\r\n\r\npragma solidity ^0.8.0;\r\n\r\ncontract Wallet{\r\n\r\n    uint public balance;\r\n    address public owner;\r\n\r\n    constructor(address _owner){\r\n        owner=_owner;\r\n    }\r\n\r\n    modifier onlyOwner(){\r\n        require(owner==msg.sender);\r\n        _;\r\n    }\r\n\r\n    function debit(uint _amount,address payable _receiver) public onlyOwner{\r\n        require(_amount<=balance);\r\n        balance-=_amount;\r\n        _receiver.transfer(_amount);\r\n    }\r\n\r\n    function credit() public payable onlyOwner{\r\n        balance+=msg.value;\r\n    }\r\n\r\n    receive() external payable{\r\n        balance+=msg.value;\r\n    }\r\n}\r\n",
  "sourcePath": "D:\\Programming\\GitHub\\Solidity_Wallet\\contracts\\Wallet.sol",
  "compiler": {
    "name": "solc",
    "version": "0.8.21+commit.d9974bed.Emscripten.clang"
  },
  "schemaVersion": "3.4.16",
  "updatedAt": "2025-07-29T16:40:06.640Z",
  "devdoc": {
    "kind": "dev",
    "methods": {},
    "version": 1
  },
  "userdoc": {
    "kind": "user",
    "methods": {},
    "version": 1
  }
}