{
  "contractName": "WalletFactory",
  "abi": [
    {
      "inputs": [],
      "name": "createWallet",
      "outputs": [],
      "stateMutability": "nonpayable",
      "type": "function"
    }
  ],
  "bytecode": "0x608060405234801561000f575f80fd5b506107638061001d5f395ff3fe608060405234801561000f575f80fd5b5060043610610029575f3560e01c806311ebbf241461002d575b5f80fd5b610035610037565b005b5f73ffffffffffffffffffffffffffffffffffffffff165f803373ffffffffffffffffffffffffffffffffffffffff1673ffffffffffffffffffffffffffffffffffffffff1681526020019081526020015f205f9054906101000a900473ffffffffffffffffffffffffffffffffffffffff1673ffffffffffffffffffffffffffffffffffffffff16146100c9575f80fd5b5f336040516100d79061017a565b6100e191906101c6565b604051809103905ff0801580156100fa573d5f803e3d5ffd5b509050805f803373ffffffffffffffffffffffffffffffffffffffff1673ffffffffffffffffffffffffffffffffffffffff1681526020019081526020015f205f6101000a81548173ffffffffffffffffffffffffffffffffffffffff021916908373ffffffffffffffffffffffffffffffffffffffff16021790555050565b61054e806101e083390190565b5f73ffffffffffffffffffffffffffffffffffffffff82169050919050565b5f6101b082610187565b9050919050565b6101c0816101a6565b82525050565b5f6020820190506101d95f8301846101b7565b9291505056fe608060405234801561000f575f80fd5b5060405161054e38038061054e833981810160405281019061003191906100d5565b8060015f6101000a81548173ffffffffffffffffffffffffffffffffffffffff021916908373ffffffffffffffffffffffffffffffffffffffff16021790555050610100565b5f80fd5b5f73ffffffffffffffffffffffffffffffffffffffff82169050919050565b5f6100a48261007b565b9050919050565b6100b48161009a565b81146100be575f80fd5b50565b5f815190506100cf816100ab565b92915050565b5f602082840312156100ea576100e9610077565b5b5f6100f7848285016100c1565b91505092915050565b6104418061010d5f395ff3fe608060405260043610610042575f3560e01c806387cf0a06146100635780638da5cb5b1461008b578063a06d083c146100b5578063b69ef8a8146100bf5761005f565b3661005f57345f80828254610057919061027e565b925050819055005b5f80fd5b34801561006e575f80fd5b5061008960048036038101906100849190610339565b6100e9565b005b348015610096575f80fd5b5061009f6101ad565b6040516100ac9190610397565b60405180910390f35b6100bd6101d2565b005b3480156100ca575f80fd5b506100d3610243565b6040516100e091906103bf565b60405180910390f35b3373ffffffffffffffffffffffffffffffffffffffff1660015f9054906101000a900473ffffffffffffffffffffffffffffffffffffffff1673ffffffffffffffffffffffffffffffffffffffff1614610141575f80fd5b5f5482111561014e575f80fd5b815f8082825461015e91906103d8565b925050819055508073ffffffffffffffffffffffffffffffffffffffff166108fc8390811502906040515f60405180830381858888f193505050501580156101a8573d5f803e3d5ffd5b505050565b60015f9054906101000a900473ffffffffffffffffffffffffffffffffffffffff1681565b3373ffffffffffffffffffffffffffffffffffffffff1660015f9054906101000a900473ffffffffffffffffffffffffffffffffffffffff1673ffffffffffffffffffffffffffffffffffffffff161461022a575f80fd5b345f8082825461023a919061027e565b92505081905550565b5f5481565b5f819050919050565b7f4e487b71000000000000000000000000000000000000000000000000000000005f52601160045260245ffd5b5f61028882610248565b915061029383610248565b92508282019050808211156102ab576102aa610251565b5b92915050565b5f80fd5b6102be81610248565b81146102c8575f80fd5b50565b5f813590506102d9816102b5565b92915050565b5f73ffffffffffffffffffffffffffffffffffffffff82169050919050565b5f610308826102df565b9050919050565b610318816102fe565b8114610322575f80fd5b50565b5f813590506103338161030f565b92915050565b5f806040838503121561034f5761034e6102b1565b5b5f61035c858286016102cb565b925050602061036d85828601610325565b9150509250929050565b5f610381826102df565b9050919050565b61039181610377565b82525050565b5f6020820190506103aa5f830184610388565b92915050565b6103b981610248565b82525050565b5f6020820190506103d25f8301846103b0565b92915050565b5f6103e282610248565b91506103ed83610248565b925082820390508181111561040557610404610251565b5b9291505056fea2646970667358221220aa8d62a2e4693ff5f4705cee8ec3aa461b1a31eac75b9a2eb06006aed066e30b64736f6c63430008150033a2646970667358221220df78f45eb5b33571ff3ed0a5fd6c39d3a0298c042204f66d7a1213a6fc7a731664736f6c63430008150033",
  "immutableReferences": {},
  "source": "// SPDX-License-Identifier: MIT\r\n\r\nimport \"./Wallet.sol\";\r\n\r\npragma solidity ^0.8.0;\r\n\r\ncontract WalletFactory {\r\n    \r\n    mapping(address => address) walletOwnership;\r\n\r\n    function createWallet() external {\r\n        require(walletOwnership[msg.sender] == address(0));\r\n        Wallet wallet = new Wallet(msg.sender);\r\n        walletOwnership[msg.sender]=address(wallet);\r\n    }\r\n}",
  "sourcePath": "D:\\Programming\\GitHub\\Solidity_Wallet\\contracts\\WalletFactory.sol",
  "compiler": {
    "name": "solc",
    "version": "0.8.21+commit.d9974bed.Emscripten.clang"
  },
  "schemaVersion": "3.4.16",
  "updatedAt": "2025-07-27T12:48:41.166Z",
  "networkType": "ethereum",
  "devdoc": {
    "kind": "dev",
    "methods": {},
    "version": 1
  },
  "userdoc": {
    "kind": "user",
    "methods": {},
    "version": 1
  }
}